:100000000C9434000C943E000C943E000C943E0082
:100010000C943E000C943E000C943E000C943E0068
:100020000C943E000C943E000C943E000C943E0058
:100030000C943E000C943E000C943E000C943E0048
:100040000C943E000C943E000C943E000C943E0038
:100050000C943E000C943E000C943E000C943E0028
:100060000C943E000C943E0011241FBECFEFD8E04C
:10007000DEBFCDBF0E9440000C947A000C940000BB
:1000800087E287B918B888B1816088B988B18D7F57
:1000900088B988B18B7F88B92FE784E89EE1215029
:1000A00080409040E1F700C0000088B1826088B9CC
:1000B00088B18E7F88B988B18B7F88B92FE382E4BD
:1000C0009FE0215080409040E1F700C0000088B1DF
:1000D000846088B988B18E7F88B988B18D7F88B9EE
:1000E0002FE784E89EE1215080409040E1F700C076
:0800F0000000C9CFF894FFCF16
:00000001FF
